{
  "_format": "hh-sol-artifact-1",
  "contractName": "TokenTransfer",
  "sourceName": "contracts/TokenTransfer.sol",
  "abi": [
    {
      "inputs": [],
      "stateMutability": "nonpayable",
      "type": "constructor"
    },
    {
      "inputs": [
        {
          "internalType": "address",
          "name": "target",
          "type": "address"
        }
      ],
      "name": "AddressEmptyCode",
      "type": "error"
    },
    {
      "inputs": [
        {
          "internalType": "address",
          "name": "account",
          "type": "address"
        }
      ],
      "name": "AddressInsufficientBalance",
      "type": "error"
    },
    {
      "inputs": [],
      "name": "FailedInnerCall",
      "type": "error"
    },
    {
      "inputs": [
        {
          "internalType": "address",
          "name": "owner",
          "type": "address"
        }
      ],
      "name": "OwnableInvalidOwner",
      "type": "error"
    },
    {
      "inputs": [
        {
          "internalType": "address",
          "name": "account",
          "type": "address"
        }
      ],
      "name": "OwnableUnauthorizedAccount",
      "type": "error"
    },
    {
      "inputs": [
        {
          "internalType": "address",
          "name": "token",
          "type": "address"
        }
      ],
      "name": "SafeERC20FailedOperation",
      "type": "error"
    },
    {
      "anonymous": false,
      "inputs": [
        {
          "indexed": true,
          "internalType": "address",
          "name": "previousOwner",
          "type": "address"
        },
        {
          "indexed": true,
          "internalType": "address",
          "name": "newOwner",
          "type": "address"
        }
      ],
      "name": "OwnershipTransferred",
      "type": "event"
    },
    {
      "inputs": [],
      "name": "owner",
      "outputs": [
        {
          "internalType": "address",
          "name": "",
          "type": "address"
        }
      ],
      "stateMutability": "view",
      "type": "function"
    },
    {
      "inputs": [],
      "name": "renounceOwnership",
      "outputs": [],
      "stateMutability": "nonpayable",
      "type": "function"
    },
    {
      "inputs": [
        {
          "internalType": "address",
          "name": "tokenAddress",
          "type": "address"
        },
        {
          "internalType": "address[]",
          "name": "tos",
          "type": "address[]"
        },
        {
          "internalType": "uint256[]",
          "name": "amounts",
          "type": "uint256[]"
        }
      ],
      "name": "transferBatchValue",
      "outputs": [],
      "stateMutability": "nonpayable",
      "type": "function"
    },
    {
      "inputs": [
        {
          "internalType": "address",
          "name": "newOwner",
          "type": "address"
        }
      ],
      "name": "transferOwnership",
      "outputs": [],
      "stateMutability": "nonpayable",
      "type": "function"
    },
    {
      "inputs": [
        {
          "internalType": "address",
          "name": "tokenAddress",
          "type": "address"
        },
        {
          "internalType": "address[]",
          "name": "tos",
          "type": "address[]"
        },
        {
          "internalType": "uint256",
          "name": "amount",
          "type": "uint256"
        }
      ],
      "name": "transferSingleValue",
      "outputs": [],
      "stateMutability": "nonpayable",
      "type": "function"
    }
  ],
  "bytecode": "0x608060405234801561001057600080fd5b5033600073ffffffffffffffffffffffffffffffffffffffff168173ffffffffffffffffffffffffffffffffffffffff16036100845760006040517f1e4fbdf700000000000000000000000000000000000000000000000000000000815260040161007b919061019e565b60405180910390fd5b6100938161009960201b60201c565b506101b9565b60008060009054906101000a900473ffffffffffffffffffffffffffffffffffffffff169050816000806101000a81548173ffffffffffffffffffffffffffffffffffffffff021916908373ffffffffffffffffffffffffffffffffffffffff1602179055508173ffffffffffffffffffffffffffffffffffffffff168173ffffffffffffffffffffffffffffffffffffffff167f8be0079c531659141344cd1fd0a4f28419497f9722a3daafe3b4186f6b6457e060405160405180910390a35050565b600073ffffffffffffffffffffffffffffffffffffffff82169050919050565b60006101888261015d565b9050919050565b6101988161017d565b82525050565b60006020820190506101b3600083018461018f565b92915050565b610d3c806101c86000396000f3fe608060405234801561001057600080fd5b50600436106100575760003560e01c8063715018a61461005c57806372616574146100665780638da5cb5b14610082578063aa3d6f4c146100a0578063f2fde38b146100bc575b600080fd5b6100646100d8565b005b610080600480360381019061007b91906109d6565b6100ec565b005b61008a6101c5565b6040516100979190610a70565b60405180910390f35b6100ba60048036038101906100b59190610a8b565b6101ee565b005b6100d660048036038101906100d19190610afa565b610269565b005b6100e06102ef565b6100ea6000610376565b565b6100f46102ef565b8051825114610138576040517f08c379a000000000000000000000000000000000000000000000000000000000815260040161012f90610b84565b60405180910390fd5b600083905060005b83518110156101be576101b161015461043a565b85838151811061016757610166610ba4565b5b602002602001015185848151811061018257610181610ba4565b5b60200260200101518573ffffffffffffffffffffffffffffffffffffffff16610442909392919063ffffffff16565b8080600101915050610140565b5050505050565b60008060009054906101000a900473ffffffffffffffffffffffffffffffffffffffff16905090565b6101f66102ef565b600083905060005b83518110156102625761025561021261043a565b85838151811061022557610224610ba4565b5b6020026020010151858573ffffffffffffffffffffffffffffffffffffffff16610442909392919063ffffffff16565b80806001019150506101fe565b5050505050565b6102716102ef565b600073ffffffffffffffffffffffffffffffffffffffff168173ffffffffffffffffffffffffffffffffffffffff16036102e35760006040517f1e4fbdf70000000000000000000000000000000000000000000000000000000081526004016102da9190610a70565b60405180910390fd5b6102ec81610376565b50565b6102f761043a565b73ffffffffffffffffffffffffffffffffffffffff166103156101c5565b73ffffffffffffffffffffffffffffffffffffffff16146103745761033861043a565b6040517f118cdaa700000000000000000000000000000000000000000000000000000000815260040161036b9190610a70565b60405180910390fd5b565b60008060009054906101000a900473ffffffffffffffffffffffffffffffffffffffff169050816000806101000a81548173ffffffffffffffffffffffffffffffffffffffff021916908373ffffffffffffffffffffffffffffffffffffffff1602179055508173ffffffffffffffffffffffffffffffffffffffff168173ffffffffffffffffffffffffffffffffffffffff167f8be0079c531659141344cd1fd0a4f28419497f9722a3daafe3b4186f6b6457e060405160405180910390a35050565b600033905090565b6104be848573ffffffffffffffffffffffffffffffffffffffff166323b872dd86868660405160240161047793929190610be2565b604051602081830303815290604052915060e01b6020820180517bffffffffffffffffffffffffffffffffffffffffffffffffffffffff83818316178352505050506104c4565b50505050565b60006104ef828473ffffffffffffffffffffffffffffffffffffffff1661055b90919063ffffffff16565b905060008151141580156105145750808060200190518101906105129190610c51565b155b1561055657826040517f5274afe700000000000000000000000000000000000000000000000000000000815260040161054d9190610a70565b60405180910390fd5b505050565b606061056983836000610571565b905092915050565b6060814710156105b857306040517fcd7860590000000000000000000000000000000000000000000000000000000081526004016105af9190610a70565b60405180910390fd5b6000808573ffffffffffffffffffffffffffffffffffffffff1684866040516105e19190610cef565b60006040518083038185875af1925050503d806000811461061e576040519150601f19603f3d011682016040523d82523d6000602084013e610623565b606091505b509150915061063386838361063e565b925050509392505050565b6060826106535761064e826106cd565b6106c5565b6000825114801561067b575060008473ffffffffffffffffffffffffffffffffffffffff163b145b156106bd57836040517f9996b3150000000000000000000000000000000000000000000000000000000081526004016106b49190610a70565b60405180910390fd5b8190506106c6565b5b9392505050565b6000815111156106e05780518082602001fd5b6040517f1425ea4200000000000000000000000000000000000000000000000000000000815260040160405180910390fd5b6000604051905090565b600080fd5b600080fd5b600073ffffffffffffffffffffffffffffffffffffffff82169050919050565b600061075182610726565b9050919050565b61076181610746565b811461076c57600080fd5b50565b60008135905061077e81610758565b92915050565b600080fd5b6000601f19601f8301169050919050565b7f4e487b7100000000000000000000000000000000000000000000000000000000600052604160045260246000fd5b6107d282610789565b810181811067ffffffffffffffff821117156107f1576107f061079a565b5b80604052505050565b6000610804610712565b905061081082826107c9565b919050565b600067ffffffffffffffff8211156108305761082f61079a565b5b602082029050602081019050919050565b600080fd5b600061085961085484610815565b6107fa565b9050808382526020820190506020840283018581111561087c5761087b610841565b5b835b818110156108a55780610891888261076f565b84526020840193505060208101905061087e565b5050509392505050565b600082601f8301126108c4576108c3610784565b5b81356108d4848260208601610846565b91505092915050565b600067ffffffffffffffff8211156108f8576108f761079a565b5b602082029050602081019050919050565b6000819050919050565b61091c81610909565b811461092757600080fd5b50565b60008135905061093981610913565b92915050565b600061095261094d846108dd565b6107fa565b9050808382526020820190506020840283018581111561097557610974610841565b5b835b8181101561099e578061098a888261092a565b845260208401935050602081019050610977565b5050509392505050565b600082601f8301126109bd576109bc610784565b5b81356109cd84826020860161093f565b91505092915050565b6000806000606084860312156109ef576109ee61071c565b5b60006109fd8682870161076f565b935050602084013567ffffffffffffffff811115610a1e57610a1d610721565b5b610a2a868287016108af565b925050604084013567ffffffffffffffff811115610a4b57610a4a610721565b5b610a57868287016109a8565b9150509250925092565b610a6a81610746565b82525050565b6000602082019050610a856000830184610a61565b92915050565b600080600060608486031215610aa457610aa361071c565b5b6000610ab28682870161076f565b935050602084013567ffffffffffffffff811115610ad357610ad2610721565b5b610adf868287016108af565b9250506040610af08682870161092a565b9150509250925092565b600060208284031215610b1057610b0f61071c565b5b6000610b1e8482850161076f565b91505092915050565b600082825260208201905092915050565b7f6c656e677468206572726f720000000000000000000000000000000000000000600082015250565b6000610b6e600c83610b27565b9150610b7982610b38565b602082019050919050565b60006020820190508181036000830152610b9d81610b61565b9050919050565b7f4e487b7100000000000000000000000000000000000000000000000000000000600052603260045260246000fd5b610bdc81610909565b82525050565b6000606082019050610bf76000830186610a61565b610c046020830185610a61565b610c116040830184610bd3565b949350505050565b60008115159050919050565b610c2e81610c19565b8114610c3957600080fd5b50565b600081519050610c4b81610c25565b92915050565b600060208284031215610c6757610c6661071c565b5b6000610c7584828501610c3c565b91505092915050565b600081519050919050565b600081905092915050565b60005b83811015610cb2578082015181840152602081019050610c97565b60008484015250505050565b6000610cc982610c7e565b610cd38185610c89565b9350610ce3818560208601610c94565b80840191505092915050565b6000610cfb8284610cbe565b91508190509291505056fea264697066735822122024ea771bb8c5eba56db573c09a7b1048f273ac89c23c1a1675b40e04f8e259cc64736f6c63430008180033",
  "linkReferences": {},
  "deployedLinkReferences": {}
}